:020000040000FA
:1000000000008A110A122628F200030E8301F10073
:100010000A088A01F000040883120313B2000130B9
:1000200083120313B000831203130B116430810099
:1000300083120313320883120313840070088A00AA
:100040008301710E8300F20E720E09006A30FE0009
:100050000130FF0080308A110A1224218A110A120D
:1000600083120313A1007F08A0006C30A2000130AE
:10007000A300831203132008A4002108A500FF3069
:10008000A007031CA103240825040319BE2804307B
:100090002207A400A501A50D2308A5072408FE003A
:1000A0002508FF0080308A110A1224218A110A12C1
:1000B00083120313A7007F08A6002208FE0023086E
:1000C000FF0080308A110A1224218A110A12831239
:1000D0000313A900A5007F08A800A400023022078E
:1000E000A400A501A50D2308A5072408FE002508E6
:1000F000FF0080308A110A1224218A110A12831209
:100100000313A500AB007F08A400AA008312031309
:100110002608AA002708AB00FF30A607031CA70388
:100120002A082B040319B7282808FE002908FF0015
:1001300080308A110A1211218A110A1283120313C4
:10014000AA00240883120313840083138312031369
:10015000251883172A0883120313800083120313C0
:10016000A80A0319A90AA40A0319A50A86280630B1
:1001700083120313A2070318A30A39288A110A124B
:10018000C228080083120313AC01AD0183160313C8
:1001900086018312031386018A110A1262218A11D1
:1001A0000A128A110A1257218A110A1283120313A2
:1001B0000610003083120313300403190C29053094
:1001C00083120313AC070318AD0A2C08D03A031DA1
:1001D0000C292D08073A031D0C29AE0183120313C5
:1001E000061CF52883120313AE0A831203132E088C
:1001F000AF0001302F06AE00AF002F0C031803290B
:10020000831203130610031C082983120313061418
:1002100083120313AC01AD0183120313B001D9287B
:100220000800003A03191829803A03191F290034DD
:100230007E08840083137F188317000808007F0856
:100240008A007E0882000800003A03192C29803AAF
:1002500003193629FF0100347E08840083137F18B8
:1002600083170008FF00840A000808008A110A1298
:100270001F21FD00FE0FFF03FF0A8A110A121F2132
:10028000FC007D08FF007C08080083120313B10105
:10029000831203130B1D4F2983120313B10A831218
:1002A0000313310808008316031381160800831214
:1002B00003130B11643081008B178B168316031305
:1002C0008112080083160313811681110114811015
:1002D000011508000234003478340134303400341D
:1002E00001340034793401343334003401340034BF
:0402F00000340034A2
:02400E00323F3F
:00000001FF
